:020000040800F2
:100000004807002061020008690200086B0200082E
:100010006D0200086F020008710200080000000075
:100020000000000000000000000000007302000853
:10003000750200080000000077020008790200083D
:100040007B0200087B0200087B0200087B0200089C
:100050007B0200087B0200087B0200087B0200088C
:100060007B0200087B0200087B0200087B0200087C
:100070007B0200087B0200087B0200087B0200086C
:100080007B0200087B0200087B02000800000000E1
:100090000000000000000000000000005D030008F8
:1000A0007B0200087B0200087B0200087B0200083C
:1000B0007B0200087B0200087B0200087B0200082C
:1000C0007B0200087B0200087B0200087B0200081C
:1000D0007B0200087B0200087B0200080000000091
:1000E0001D0300087B0200087B02000800000000DE
:1000F0000000000000000000000000007B0200087B
:10010000000000007B0200087B0200087B02000860
:1001100000000000000000000000000000000000DF
:100120007B0200087B0200087B0200087B020008BB
:100130007B0200080000000000000000000000003A
:100140000000000000000000000000007B0200082A
:100150007B0200087B0200087B0200087B0200088B
:100160007B0200087B020008000000000000000085
:10017000000000000000000000000000000000007F
:10018000000000007B0200080000000000000000EA
:100190007B02000800F002F800F052F814A696E87E
:1001A000000CB244B344DA4501D100F049F8BAE892
:1001B0000F000FA696E83000A5EB040504EB060738
:1001C000AAEB0704A7F101074FEA15154FEA34140B
:1001D000A4F10104AC4201D300F032F813F0010F96
:1001E00018BFFB1A43F0010300F001F8DBE71847E2
:1001F0004407000064070000103A24BF78C878C1A3
:10020000FAD8520724BF30C830C144BF04680C601C
:1002100070470000704700000023002400250026DE
:10022000103A28BF78C1FBD8520728BF30C148BF59
:100230000B6070471FB500F06FFB1FBD10B510BD00
:1002400000F036F81146FFF7F5FF00F041F900F035
:1002500054F803B4FFF7F2FF03BC00F057F80000B6
:100260000948804709480047FEE7FEE7FEE7FEE74A
:10027000FEE7FEE7FEE7FEE7FEE7FEE70448054986
:10028000054A064B70470000D90300089501000895
:1002900048010020480700204803002048030020B0
:1002A000704770477047000000487047C800002042
:1002B0007546FFF7F9FFAE4605006946534620F044
:1002C0000700854618B020B5FFF7D8FFBDE82040ED
:1002D0004FF000064FF000074FF000084FF0000B02
:1002E000AC46ACE8C009ACE8C009ACE8C009ACE871
:1002F000C00921F007018D46704710B50446AFF3E1
:1003000000802046BDE81040FFF7A3BF0149182038
:10031000ABBEFEE7260002007047000043F6144023
:10032000C4F2010000684005002815D5FFE743F638
:100330001441C4F20101086840F48060086040F292
:100340004011C2F200010C20086040F24411C2F2D8
:1003500000010A200860FFE77047000080B500F048
:1003600075F943F61441C4F201014FF6FF700860BD
:1003700040F22810C2F20000006803280BD1FFE70A
:1003800040F23410C2F20000006840F23C11C2F2A8
:10039000000108601FE040F23C10C2F2000000685B
:1003A00000EB400140F20000C2F2000000EB01103F
:1003B00040F23411C2F20001096801EB410100EB87
:1003C000810040F22811C2F20001096850F82100B2
:1003D00000F020F9FFE780BD4EF68851CEF2000113
:1003E000086840F4700008607047000081B08DF824
:1003F00003009DF9030000280ED4FFE79DF90310C8
:1004000001F01F02012090404A094EF20011CEF285
:10041000000141F82200FFE701B0704782B08DF87B
:10042000070000919DF9070000280AD4FFE7009813
:1004300000019DF907104EF20042CEF200028854EE
:100440000BE0009800019DF8071001F00F014EF637
:100450001452CEF200028854FFE702B07047000049
:1004600081B000200090FFE7009842F20F718842AF
:100470002CDCFFE740F23810C2F200000068803048
:10048000C04340F61401C4F20201086040F22C108F
:10049000C2F20000006800F58070C043086040F2BE
:1004A0003010C2F20000006800F50070C043086020
:1004B00040F2C000C2F20000006800F58060C04356
:1004C0000860FFE7009801300090CDE701B0704769
:1004D00080B586B000200490059043F63001C4F248
:1004E0000201086840F001000860086840F002005E
:1004F0000860086840F00400086043F64401C4F254
:100500000201086840F4804008600021C4F2020142
:10051000086840F255521040086040F20041C4F2B1
:100520000201086820F47F30086040F20C41C4F2F8
:100530000201086840F47F30086043F61003C4F2FB
:1005400001030093186820F0F0001860186840F06C
:100550001000186043F60042C4F2010201921068D4
:1005600040F02000106043F60841C4F201010291FE
:10057000086840F020000860186820F47060186077
:10058000186840F480701860106840F040001060F7
:10059000086840F040000860186820F47040186057
:1005A000186840F480501860106840F080001060B7
:1005B000086840F080000860186820F00F0018609C
:1005C000186840F001001860106840F480701060F6
:1005D000086840F48070086017200390FFF706FF5A
:1005E00003980499FFF71AFF40F60001C4F20201D4
:1005F000086845F25552C0F255521043086040F267
:100600001441C4F202010F200860FFE7FFF728FF42
:10061000FCE7000081B0009040F22C11C2F2000112
:10062000086840F23812C2F20002106040F2301244
:10063000C2F200021068086040F2C001C2F200017C
:10064000086810600098086001B0704782B0002010
:100650000190FFE700200090FFE7009848F29F61BB
:10066000C0F20101884205DCFFE7FFE70098013096
:100670000090F2E71421C4F202018020086040F2E9
:100680001040C4F20200006800F00F0001900198D1
:1006900001280DD1FFE740F23411C2F2000103201E
:1006A000086040F22811C2F200010020086034E026
:1006B000019802280DD1FFE740F23411C2F2000187
:1006C0000320086040F22811C2F2000101200860F6
:1006D00020E1019804280DD1FFE740F23411C2F265
:1006E00000010320086040F22811C2F2000102203C
:1006F00008600FE1019808280CD1FFE740F234119F
:10070000C2F200010320086040F22811C2F2000189
:100710000860FFE0FFE7FFE7FFE740F21441C4F2A3
:1007200002014020086040F21040C4F2020000685C
:1007300000F00F000190019801280DD1FFE740F271
:100740003411C2F200010220086040F22811C2F206
:1007500000010020086034E0019802280DD1FFE775
:1007600040F23411C2F200010220086040F2281168
:10077000C2F2000101200860CCE0019804280CD1ED
:10078000FFE740F23411C2F200010220086040F29B
:100790002811C2F200010860BCE0019808280DD1C0
:1007A000FFE740F23411C2F200010220086040F27B
:1007B0002811C2F2000103200860ABE0FFE7FFE769
:1007C000FFE740F21441C4F202012020086040F229
:1007D0001040C4F20200006800F00F000190019880
:1007E00001280DD1FFE740F23411C2F200010120CF
:1007F000086040F22811C2F200010020086034E0D5
:10080000019802280CD1FFE740F23411C2F2000136
:100810000120086040F22811C2F20001086079E06E
:10082000019804280DD1FFE740F23411C2F2000113
:100830000120086040F22811C2F200010220086085
:1008400068E0019808280DD1FFE740F23411C2F2A8
:1008500000010120086040F22811C2F200010320CB
:10086000086057E0FFE7FFE7FFE740F21441C4F2FA
:1008700002011020086040F21040C4F2020000683B
:1008800000F00F000190019801280CD1FFE740F221
:100890003411C2F200010020086040F22811C2F2B7
:1008A0000001086035E0019802280DD1FFE740F211
:1008B0003411C2F200010020086040F22811C2F297
:1008C00000010120086025E0019804280DD1FFE710
:1008D00040F23411C2F200010020086040F22811F9
:1008E000C2F200010220086014E0019808280DD12E
:1008F000FFE740F23411C2F200010020086040F22C
:100900002811C2F200010320086003E0FFE7FFE7BF
:10091000FFE79FE602B07047F1EE100A4FF6FF7155
:10092000C0F2C03120EA010040F04070E1EE100A50
:10093000704700005409000800000020C4000000B7
:10094000F8010008180A0008C8000020800600000E
:1009500018020008790000002400000030000000A8
:1009600019000000120000000200000078000000E2
:1009700000000000100000007F00000040000000A8
:100980007F00000008000000030000004600000097
:1009900021000000060000000E000000C2FFFFFF63
:1009A0008BFFFFFFCFFFFFFFF1FFFFFFC9FFFFFF3F
:1009B000C7FFFFFFA9FFFFFFABFFFFFFA3FFFFFF85
:1009C0008CFFFFFF98FFFFFFAFFFFFFF92FFFFFFCE
:1009D000CEFFFFFFC1FFFFFFE3FFFFFFEBFFFFFFC6
:1009E00089FFFFFF91FFFFFFB6FFFFFFBFFFFFFF84
:1009F00080FFFFFF80FFFFFF7F00000080FFFFFF01
:100A000080FFFFFF80FFFFFF80FFFFFF80FFFFFFF2
:080A100080FFFFFFFFFFFFFF65
:04000005080002618C
:00000001FF
